:100000000C945D000C9485000C9485000C94850084
:100010000C9485000C9485000C9485000C9485004C
:100020000C9485000C94450C0C9485000C94C2052E
:100030000C9485000C9485000C9485000C9485002C
:100040000C9485000C9485000C9485000C9485001C
:100050000C9485000C9485000C9485000C94440944
:100060000C9485000C9485000C9485000C948500FC
:100070000C9485000C9485000C9485000C948500EC
:100080000C9485000C9485000C9485000C948500DC
:100090000C9485000C9485000C9485000C948500CC
:1000A0000C946E090C9485000C9485001280290034
:1000B0001212137FFFFFB60A180B11241FBECFEFD9
:1000C000CDBFDFE2DEBF10E2A0E0B0E2ECE4FCE195
:1000D00002C005900D92A031B107D9F726E2A0E148
:1000E000B0E201C01D92AC33B207E1F710E0C8EBFB
:1000F000D0E004C02297FE010E94DF0CC63BD1076E
:10010000C9F70E94EA090C94190E0C940000089596
:10011000FC0162A373A310A211A287E890E0FB0187
:10012000848395830895CF93DF931F92CDB7DEB775
:100130006983FC01268137812115310539F0BE0123
:100140006F5F7F4FC9010E94CA030AC0FC0180850E
:100150009185009729F0BE016F5F7F4F0E94CE0707
:1001600089810F90DF91CF910895FC01268137811D
:100170002115310521F0C9010E94BF040895FC0139
:1001800080859185009711F00E9409090895FC016E
:10019000268137812115310521F0C9010E94C8044B
:1001A0000895FC0180859185009711F00E94120945
:1001B0000895CF92DF92EF92FF92CF93DF93EC01FD
:1001C0006A017B016FEFCE010E9493008F3F69F0BF
:1001D000B701A6014150510961097109CD28CE2806
:1001E000CF2819F06A017B01EDCF21E030E08F3F8D
:1001F00011F020E030E0C901DF91CF91FF90EF9046
:10020000DF90CF900895CF93DF93EC010E94C70059
:100210006FEFCE010E949300DF91CF9108950F936D
:100220001F93CF93DF93EC010E94B5006FEFCE01D7
:100230000E94930040E553EC60E070E0CE010E9424
:10024000D9008C01009721F4CE010E94030102C065
:1002500001E010E0C801DF91CF911F910F91089547
:10026000CF92DF92EF92FF921F93CF93DF93EC0137
:10027000162F69017A01662354F420E030E0A901C9
:1002800067E30E943001823008F06AC01F771C309B
:1002900009F43FC0CE010E940301CE010E940F016C
:1002A000892BA9F1612F6064CE010E9493006F2D0C
:1002B000772788279927CE010E949300B7018827C6
:1002C0009927CE010E94930099278F2D7E2D6D2DA9
:1002D000CE010E9493006C2DCE010E949300112349
:1002E000D1F1183099F161E0CE010E9493001C30E9
:1002F00021F46FEFCE010E9493001FEF6FEFCE014C
:100300000E949300882364F51150C1F729C08FEF34
:1003100027C06CE4CE010E9493006F2D77278827B9
:100320009927CE010E949300B70188279927CE0113
:100330000E94930099278F2D7E2D6D2DCE010E9456
:1003400093006C2DCE010E949300CDCF67E8CE01C3
:100350000E949300D2CF65E9CE010E949300CDCFD9
:10036000DF91CF911F91FF90EF90DF90CF90089594
:10037000AF92BF92CF92DF92EF92FF920F931F93B3
:10038000CF93DF9300D000D0CDB7DEB78C01FC0156
:1003900086819781009729F063E070E00E94B504A0
:1003A00009C0F80180859185009721F060E570E033
:1003B0000E94FC08C8010E94C70081E0F801818307
:1003C0000F2EFEE0FF2EF02D6FEFC8010E9493006C
:1003D000FA94D1F720E030E0A90160E0C8010E9462
:1003E0003001813009F0CBC02AEA31E040E050E032
:1003F00068E0C8010E943001813009F057C05E01F9
:10040000F5E0AF0EB11CCE0101967C016FEFC80183
:100410000E949300F70181937F01EA15FB05B1F774
:100420008B81813009F0ABC08C818A3A09F0A7C07A
:100430000F2EFFE9CF2EF6E8DF2EEE24E394F12C09
:10044000F02D0BC0F1E0CF1AD108E108F1088FEFD1
:10045000C816D806E806F80679F020E030E040E05B
:1004600050E469EAC8010E9430018111EBCFCD2828
:10047000CE28CF2809F483C020E030E0A9016AE348
:10048000C8010E94300181117AC0FE0131967F01BE
:100490006FEFC8010E949300F70181937F01EA1575
:1004A000FB05B1F7898186FD66C06DC020E030E0B4
:1004B000A90169EAC8010E943001823040F46894C1
:1004C000AA24A1F80F2EF9EABF2EF02D04C0AA2409
:1004D000A394BB24B3940F2EFFE9CF2EF6E8DF2EB2
:1004E000EE24E394F12CF02D0BC0F1E0CF1AD108EB
:1004F000E108F1088FEFC816D806E806F80669F09B
:1005000020E030E0A9016B2DC8010E94300181116B
:10051000ECCFCD28CE28CF2891F120E032E040E08A
:1005200050E060E1C8010E943001811128C0C8017B
:100530000E940301AA20B9F0F801868197810097F3
:1005400029F061E070E00E94B50409C0F8018085DF
:100550009185009721F061E070E00E94FC0881E045
:10056000F801808302C0F8011082C8010E94C70010
:10057000F80180810CC082E0F801818304C0C801C9
:100580000E940301F0CFC8010E940301D5CF249639
:10059000CDBFDEBFDF91CF911F910F91FF90EF9004
:1005A000DF90CF90BF90AF900895EF92FF920F939E
:1005B0001F93CF93DF93EC017B018A016FEFCE0194
:1005C0000E9493008F3FD1F38E3F09F5EE81FF81AA
:1005D000309741F0E386F486B8018E819F810E94B6
:1005E000D8030BC0E885F985309739F0E38EF48E97
:1005F000B801888599850E94DE076FEFCE010E94C1
:1006000093006FEFCE010E94930081E001C080E073
:10061000DF91CF911F910F91FF90EF900895AF92CE
:10062000BF92CF92DF92EF92FF920F931F93CF93DF
:10063000DF935C01EB0169017A010115110509F4F1
:1006400052C0FC018081882309F450C0818181302F
:1006500049F40B2EB9E0CC0CDD1CEE1CFF1CBA9546
:10066000D1F7B02D0130110599F4A701960161E190
:10067000C5010E94300181112DC040E052E0BE0151
:10068000C5010E94D50201E08027082F10E022C09A
:10069000A701960162E1C5010E94300181111AC0D3
:1006A00040E052E0BE01C5010E94D502882359F006
:1006B000DE5FF1E0CF1AD108E108F108C114D104DE
:1006C000E104F10469F720E030E0A9016CE0C50124
:1006D0000E943001C5010E94030181E090E0012BDE
:1006E00039F080E005C080E090E002C080E090E05A
:1006F000DF91CF911F910F91FF90EF90DF90CF90FE
:10070000BF90AF9008958F929F92AF92BF92CF9279
:10071000DF92EF92FF920F931F93CF93DF937C01B1
:10072000EB01680149015A018FEF881A980AA80A5B
:10073000B80A01E010E0BE01C7010E940F03009754
:1007400061F0DE5F81E0C81AD108C114D10419F04C
:10075000A5019401E7CF81E090E0DF91CF911F9157
:100760000F91FF90EF90DF90CF90BF90AF909F9050
:100770008F900895FC0166837783408751870E949C
:10078000B8010895E0E0F1E080E280838081806834
:1007900080830895DC01ED91FC91DB018C918383D2
:1007A00082818823ECF78381FB01808381E00895B7
:1007B0007F928F929F92AF92BF92CF92DF92EF92F1
:1007C000FF920F931F93CF93DF931F92CDB7DEB7A6
:1007D0008C01DC011B968D919C911C97892B09F44F
:1007E000B2C01D968C911D97882339F01596ED9116
:1007F000FC91169714968C918683D8011796ED91EB
:10080000FC911897309761F54B01A12CB12C811404
:100810009104A104B10409F48AC0C12CD12C760141
:1008200077247A947982BE016F5F7F4FC8010E945E
:10083000CA03882309F48AC08981D8011B96ED91E7
:10084000FC911C97EC0DFD1D8083BFEFCB1ADB0ADA
:10085000EB0AFB0AC814D904EA04FB0418F367C0C6
:10086000D8011B968D919C911C9780879187179634
:10087000ED91FC91189781E082831796ED91FC91A0
:1008800018978AE484836F3F710559F150F1CB01C9
:1008900044E03FEFD8011796ED91FC91189716822E
:1008A00017821796ED91FC91189740831796ED915A
:1008B000FC911897208120682083ED91FC9111977D
:1008C00033831796ED91FC911897218124FFFDCF7A
:1008D0002181206121839A958F3F910509F0D0F6FF
:1008E00077276115710519F1D8011796ED91FC91E3
:1008F0001897668377831796ED91FC91189784E09B
:1009000080831796ED91FC91189780818068808391
:10091000ED91FC9111978FEF83831796ED91FC91E8
:100920001897818184FFFDCF818180618183F801E7
:100930008585882351F00580F681E02DD801149635
:100940009C91958303C080E001C081E00F90DF910E
:10095000CF911F910F91FF90EF90DF90CF90BF90BC
:10096000AF909F908F907F900895DC01ED91FC9166
:1009700080818C7780686370682B60830895DC01C8
:100980001596ED91FC91169714968C918683089597
:10099000DC011596ED91FC91169714968C91858348
:1009A00008950F931F93CF93DF938C01FC01C081B7
:1009B000D1818981877F8983C038F4E0DF0781F4A2
:1009C000E0E4F6E083E0818386838FE193E00197A2
:1009D000F1F700C0000083E0828388E1808B818B87
:1009E0006091062070910720809108209091092045
:1009F00020E43DE043E050E00E94BB0C25502D83F5
:100A000089818F73886789838A818C608A8381E07A
:100A10008C8380E190E0F8018787908B818B928BAB
:100A20000E94F20CF801838B948B80E190E00E948D
:100A3000F20CF801858B968BDF91CF911F910F916E
:100A40000895FC016083718380931020909311209E
:100A5000828393830E94D10408950895CF93DF93F6
:100A6000FB01A081B18145855685858196812385CD
:100A7000348533278217930770F425893689E90175
:100A8000C80FD91F888117968C938581968101960E
:100A90008583968312C05527878190858417950793
:100AA00030F48481880F816016968C9306C083E0B1
:100AB00013968C9381E082871186DF91CF91089500
:100AC000CF93DF93FB01A081B1818781908527853A
:100AD00030898217930778F417964C9117972389DA
:100AE0003489E901C80FD91F488387819085019611
:100AF0008783908707C083E013968C93139782E0D7
:100B000082871186858596859927278130852817C4
:100B1000390720F482E013968C9306C087E0139681
:100B20008C9381E082871186DF91CF910895FB013C
:100B3000A081B18114968C91149782FF03C094E038
:100B4000928702C093E09287886014968C931186F6
:100B50000895DB01ED91FC912481322F3C7019F056
:100B60000E949705089526FF03C00E942E05089550
:100B700022231CF40E946005089586E0FB01828711
:100B8000118608951F920F920FB60F9211242F9382
:100B90003F934F935F936F937F938F939F93AF9305
:100BA000BF93EF93FF938091102090911120BC018F
:100BB0000E94A905FF91EF91BF91AF919F918F91F5
:100BC0007F916F915F914F913F912F910F900FBE49
:100BD0000F901F901895DB01ED91FC918181877F2B
:100BE0008183BAE6BA95F1F700C0DB01ED91FC9183
:100BF00081818860818381E008950F931F93CF9353
:100C0000DF93EB0169897A896417750708F44AC094
:100C10006F8578896217730708F446C0698561118A
:100C200045C061E069871A864B875C872D873E87C0
:100C30001D821E821F821886452B49F02C81220FAF
:100C4000DC01ED91FC91268308EE13E011C0232B0B
:100C5000D9F32C81220F2160DC01ED91FC912683D8
:100C6000F3CFEFE1F3E03197F1F700C00000A89572
:100C70002985222331F0015011090115110589F749
:100C800003C00115110519F4BE010E94EB058A8508
:100C9000813021F4012B19F080E001C081E091E066
:100CA000892705C080E003C080E001C080E0DF91BB
:100CB000CF911F910F910895FC01A085B1851396E6
:100CC0001C92128613861086118608954F925F92A9
:100CD0006F927F928F92AF92CF92EF920F93CF93BA
:100CE000DF93CDB7DEB73C012B01AE85BF856889A8
:100CF0004114510409F4F2C070EC471678E057062D
:100D000089F58989811115C0E0E4F6E086858F7E3A
:100D10008687E0ECCE1205C0E0E4F6E082E0818355
:100D20008583E0E4F6E088E08183858388E1828B37
:100D300014C0E0E4F6E0868580618687F0ECCF128F
:100D400005C0E0E4F6E080E281838583E0E4F6E03C
:100D500080E88183858388E1868B6092142070927D
:100D6000152041C070EC471679E0570689F589894E
:100D7000811115C0E0E6F6E086858F7E8687E0EC7F
:100D8000CE1205C0E0E6F6E082E081838583E0E6EE
:100D9000F6E088E08183858388E1828B14C0E0E6F9
:100DA000F6E0868580618687F0ECCF1205C0E0E62C
:100DB000F6E080E281838583E0E6F6E080E88183E7
:100DC000858388E1868B60921220709213200BC07D
:100DD000D3011A961D921C921B9718961D921C9275
:100DE000199780E07CC0109741F0662331F015968A
:100DF0006C93159711966C931197F3016286738625
:100E000040865186A487B587628BF0ECCF122CC048
:100E1000D20116962C93D3011896ED91FC91199757
:100E20003F7037831896ED91FC91199712821896AE
:100E3000ED91FC911997982D9870906C8A2D807384
:100E4000A92EA82AA4821896ED91FC911997B0E1D9
:100E5000EB9EC00111248071000F000F000F08707D
:100E6000802B838381E03BC060E079E08DE390E0FC
:100E70000E94BB0C21503109F2012683D301189640
:100E8000ED91FC911997832F8F7087831896ED91C0
:100E9000FC91199780E182831896ED91FC91199746
:100EA000982D987093608A2D8073A92EA82A8C2D76
:100EB000807CCA2CC82AC4821896ED91FC9119979F
:100EC000000F000F000F08700460B0E1EB9EC0013E
:100ED00011248071802B838381E001C080E0DF9149
:100EE000CF910F91EF90CF90AF908F907F906F90B8
:100EF0005F904F9008958F92AF92CF92EF920F93A1
:100F0000CF93DF93CDB7DEB7EA85FB85AD85AF9391
:100F1000AC85AF93FF93EF930E9466060F900F90FE
:100F20000F900F90DF91CF910F91EF90CF90AF90F6
:100F30008F900895CF93DF9300D000D0CDB7DEB768
:100F4000262F40EA56E861E070E049835A836B83BC
:100F50007C83DC011896ED91FC91199712C0898170
:100F60009A81AB81BC81AC01BD014150510961093D
:100F7000710949835A836B837C83892B8A2B8B2B42
:100F800031F0818185FFEBCF208381E001C080E0DB
:100F90002496CDBFDEBFDF91CF910895DC01189676
:100FA000ED91FC911997DB018C91808381818823DD
:100FB000ECF78081FB01808381E008957F928F921E
:100FC0009F92AF92BF92CF92DF92EF92FF920F93D8
:100FD0001F93CF93DF931F92CDB7DEB78C01DC0157
:100FE0005B968D919C915C97892B09F4F3C05D967B
:100FF0008C915D97882339F01C96ED91FC911D979B
:1010000052968C918683F80186859785892B61F5A8
:101010004B01A12CB12C81149104A104B10409F459
:10102000CDC0C12CD12C760177247A947982BE016F
:101030006F5F7F4FC8010E94CE07882309F4CDC09F
:101040008981D8015B96ED91FC915C97EC0DFD1DBB
:101050008083BFEFCB1ADB0AEB0AFB0AC814D90462
:10106000EA04FB0418F3AAC08FEF8983D801008833
:10107000F189E02DCE010196808791875096ED9100
:10108000FC91519712825096ED91FC9151978DE40D
:1010900084831E96ED91FC911F975B968D919C9198
:1010A0005C97808791871E96ED91FC911F9781E058
:1010B00082831E96ED91FC911F978CE484836115C9
:1010C000B2E07B0708F43FC0CB0134E2D8011E96A2
:1010D000ED91FC911F97168217821E96ED91FC915F
:1010E0001F9730831E96ED91FC911F9720812068F9
:1010F00020835096ED91FC9151971682178250965D
:10110000ED91FC91519730835096ED91FC91519760
:101110002081206820831E96ED91FC911F972181EC
:1011200024FFFDCF218120612183D8011E96ED91FE
:10113000FC911F9721812061218392508115B2E09B
:101140009B0720F6717061157105C1F1D8011E96DB
:10115000ED91FC911F97668377831E96ED91FC912C
:101160001F9784E280831E96ED91FC911F979081DA
:10117000906890835096ED91FC91519766837783A8
:101180005096ED91FC91519780835096ED91FC9192
:1011900051978081806880831E96ED91FC911F9706
:1011A000818184FFFDCF818180618183D8011E967A
:1011B000ED91FC911F97818180618183F801858D7C
:1011C000882351F00484F585E02DD80152969C9136
:1011D000958303C080E001C081E00F90DF91CF9143
:1011E0001F910F91FF90EF90DF90CF90BF90AF9045
:1011F0009F908F907F900895DC011896ED91FC915F
:10120000199766831896ED91FC9119977F707783F3
:101210000895DC011C96ED91FC911D9752968C91DE
:1012200086830895DC011C96ED91FC911D975296E2
:101230008C91858308950F931F93CF93DF938C0137
:10124000EB016881662339F02196C8010E949A0754
:1012500069916111FACFDF91CF911F910F9108959C
:10126000DC01009781F01896ED91FC91199760814F
:101270001496ED91FC911597309729F016968D9163
:101280009C911797099508951F920F920FB60F9290
:1012900011242F933F934F935F936F937F938F937B
:1012A0009F93AF93BF93EF93FF93809114209091FE
:1012B0001520009711F00E943009FF91EF91BF9126
:1012C000AF919F918F917F916F915F914F913F91DE
:1012D0002F910F900FBE0F901F9018951F920F9295
:1012E0000FB60F9211242F933F934F935F936F93F9
:1012F0007F938F939F93AF93BF93EF93FF938091CF
:10130000122090911320009711F00E943009FF9154
:10131000EF91BF91AF919F918F917F916F915F916D
:101320004F913F912F910F900FBE0F901F901895E6
:101330000F931F9380E291E08093072590930825F7
:1013400080E191E08093092590930A2580E092E066
:10135000ECE1F0E2DF019C011D9221503040E1F709
:1013600001E010E020E030E0A901BF0188ED94E247
:101370000E9483031F910F910895CF93282F30E08F
:101380003595279535952795359527953595279545
:10139000C82FCF702A3038F460E3620F87E195E2FE
:1013A0000E949A0706C067E3620F87E195E20E94F8
:1013B0009A07CA3038F460E36C0F87E195E20E9427
:1013C0009A0706C067E36C0F87E195E20E949A07CF
:1013D000CF910895CF93DF931F92CDB7DEB70F2E35
:1013E000F7E2EF2EF2E2FF2EF02D01EB14E20F2ECA
:1013F000FBE2CF2EF2E2DF2EF02D0F2EF1E3AF2E27
:10140000F2E2BF2EF02D77247394F70140815181D1
:10141000628173818091202290912122A0912222C9
:10142000B0912322481759076A077B0709F440C087
:1014300080819181A281B38187709927AA27BB27D8
:10144000892B8A2B8B2B09F48CC032C0F701808149
:101450009181A281B3818093202290932122A09335
:101460002222B0932322F50116C08191280F311D4D
:10147000E815F905D1F7ADECBCEC0E94E30C9695AC
:10148000879596958795969587950E94BD098016B4
:10149000910641F0F4014F018AE0880E911C20E092
:1014A00030E0E3CF6AE070E287E195E20E941B0939
:1014B000F601408151816281738180911C2290915B
:1014C0001D22A0911E22B0911F22481759076A07BA
:1014D0007B0709F49ACF80819181A281B3818093A7
:1014E0001C2290931D22A0931E22B0931F22809154
:1014F000202290912122A0912222B091232280913A
:10150000202290912122A0912222B0912322809327
:10151000182090931920A0931A20B0931B20AE019D
:101520004F5F5F4F64E085E292E20E94250B80915D
:101530001620882349F089810E94BD096DE070E280
:1015400087E195E20E941B091092162089819091F3
:101550001720981709F459CF8093172070921620FE
:1015600054CF80911620811171CFA2CF8F92AF926C
:10157000CF92EF920F9387E395E20E94900C85E360
:1015800095E20E94C2031F928FEF8F931F921F92CA
:10159000812CA12CC12CEE24E39401E020E432E460
:1015A0004FE050E060EC79E087E195E20E947B0734
:1015B00081E08F9380E18F9386E08F9380E48F9317
:1015C0000F2EF0ECCF2EF02D20E030E0A90160ECE2
:1015D00078E089EF94E20E947B0760E874E082EE95
:1015E00094E20E94210549EF54E260E070E088ED4A
:1015F00094E20E94BA0367E175E284EB94E20E94F0
:10160000880040E351E062EE74E285E292E20E94DB
:10161000A60B84E292E20E9498098DB79EB70896C5
:101620008DBF9EBF0F91EF90CF90AF908F90089598
:1016300082EE94E20E942D0589EF94E20E945C06FE
:1016400087E195E20E945C0608950F931F93CF9364
:10165000DF93EC018A01FC01E357FD4FA081B181CA
:1016600081E214968C93A081B18155960D90BC9126
:10167000A02D6C938081918121E030E041E050E029
:10168000BC010E94FD05882351F0C357DD4FE8815E
:10169000F9810388F489E02D9081F8019083DF912E
:1016A000CF911F910F910895CF93C62FFC01E3575F
:1016B000FD4FA081B18181E214968C93A081B1810C
:1016C00055960D90BC91A02D6C93A081B18155963B
:1016D0000D90BC91A02D11964C938081918120E0BA
:1016E00030E042E050E0BC010E94FD05882359F043
:1016F000C23149F42FEF33EC99E021503040904053
:10170000E1F700C00000CF9108950F931F93CF938E
:10171000DF938C01EB01FE0184918F3F89F0FE0184
:1017200031964491FB016491C8010E94540B8823B7
:1017300041F02296BE01FE0194919F3F81F701C0C6
:1017400081E0DF91CF911F910F910895EF92FF9269
:101750000F931F93CF93DF931F92CDB7DEB77C011A
:10176000DA01FC01E357FD4F60837183FC01408384
:10177000518380EE97E022E0FC0121832583E0E0A5
:10178000F6E02FEF228320E1208B218B228B238B0D
:10179000248B258B268B278BE0E4F6E048E1428BF7
:1017A000438B2CE02283228723E0218721E5E0E69A
:1017B000F6E0278BE0E8F1E010862FE6208324E0B6
:1017C0002C9320E832E016962D933C93179728E04F
:1017D00036E018962D933C93199712961C92129707
:1017E0009701245F3F4F1C962D933C931D9721E357
:1017F00013962C93139731E014963C93DC011196C9
:101800003C93119750964C93118681E88183E0EBCD
:10181000F0E02683BFEFE3EFF1E0B150E040F040AD
:10182000E1F700C0000082E0E0EEF7E086836CEABA
:1018300070E0C7010E94850B20E030E0F901E85C10
:10184000FA4D10822F5F3F4F211581E03807B1F725
:1018500000E010E01982AE014F5F5F4F602FC701BB
:101860000E94250B8981F801E85CFA4D80830F5FA7
:101870001F4F011591E0190769F70F90DF91CF9184
:101880001F910F91FF90EF9008951F920F920FB646
:101890000F9211248F939F93AF93BF93EF93FF9376
:1018A000E0E4F6E0848583FF19C088E084878085C2
:1018B00083FF14C0E7E2F2E280819181A281B381CB
:1018C0000196A11DB11D80839183A283B383E09112
:1018D0002522F0912622808180688083E0E4F6E072
:1018E000848582FF12C084E08487808582FD0DC0DC
:1018F000EBE2F2E280819181A281B3810196A11D88
:10190000B11D80839183A283B383FF91EF91BF9137
:10191000AF919F918F910F900FBE0F901F901895D0
:10192000E0E5F0E0808182608083E0E6F0E088E23C
:1019300082838DE08383E0E5F0E0818181FFFDCF4C
:1019400091E088ED84BF9093400080E098E4A8EE99
:10195000B1E08093062090930720A0930820B093D5
:101960000920E0EAF0E09281976088ED84BF9093CF
:10197000A20078940895A1E21A2EAA1BBB1BFD01B8
:101980000DC0AA1FBB1FEE1FFF1FA217B307E4075E
:10199000F50720F0A21BB30BE40BF50B661F771FB6
:1019A000881F991F1A9469F7609570958095909596
:1019B0009B01AC01BD01CF010895EE0FFF1F059003
:1019C000F491E02D0994A29FB001B39FC001A39FA1
:1019D000700D811D1124911DB29F700D811D112468
:1019E000911D0895CF93DF938230910510F482E02A
:1019F00090E0E0913A26F0913B2620E030E0A0E034
:101A0000B0E0309739F14081518148175907B8F05B
:101A10004817590771F482819381109729F0129623
:101A20008D939C9313972CC080933A2690933B26DA
:101A300027C02115310531F04217530718F0A901CD
:101A4000DB0101C0EF019A01BD01DF010280F381DA
:101A5000E02DD7CF21153105F9F0281B390B2430A3
:101A6000310580F48A819B816115710521F0FB01AC
:101A70008283938304C080933A2690933B26FE0191
:101A8000329644C0FE01E20FF31F819391932250DE
:101A90003109288339833AC020913826309139267C
:101AA000232B41F4209102203091032020933826EB
:101AB00030933926209100203091012021153105E5
:101AC00041F42DB73EB74091042050910520241BCE
:101AD000350BE0913826F0913926E217F307A0F490
:101AE0002E1B3F0B2817390778F0AC014E5F5F4F74
:101AF0002417350748F04E0F5F1F40933826509348
:101B000039268193919302C0E0E0F0E0CF01DF91AC
:101B1000CF910895CF93DF93009709F487C0FC011C
:101B2000329712821382C0913A26D0913B26209799
:101B300081F420813181280F391F809138269091BE
:101B400039268217930779F5E0933826F0933926E2
:101B50006DC0DE0120E030E0AE17BF0750F41296F2
:101B60004D915C9113979D014115510509F1DA01E1
:101B7000F3CFA283B38340815181840F951F8A17CD
:101B80009B0771F48D919C911197840F951F02967C
:101B90008083918312968D919C9113978283938376
:101BA0002115310529F4E0933A26F0933B263EC0F7
:101BB000D9011296ED93FC9313974D915D91A40F6B
:101BC000B51FEA17FB0779F480819181840F951F77
:101BD0000296D9018D939C931197828193811296DD
:101BE0008D939C931397E0E0F0E08A819B810097AE
:101BF00019F0FE01EC01F9CFCE010296288139815E
:101C0000820F931F209138263091392628173907E3
:101C100069F4309729F410923A2610923B2602C0BC
:101C200012821382C0933826D0933926DF91CF9148
:101C3000089510E0C8EBD0E004C0FE010E94DF0C64
:0C1C40002296CA3BD107C9F7F894FFCFE9
:101C4C0000003C2620000048E8010D0A000A0D00A7
:00000001FF
